:020000040800F2
:1000000050040020450100087F0C0008950B0008F3
:100010007D0C000849020008D90D0008000000000E
:10002000000000000000000000000000830C000839
:100030004B02000800000000810C0008850C00083D
:100040005F0100085F0100085F0100085F01000810
:100050005F0100085F0100085F0100085F01000800
:100060005F0100085F0100085F0100085F010008F0
:100070005F0100085F0100085F0100085F010008E0
:100080005F0100085F0100085F0100085F010008D0
:100090005F0100085F0100085F0100085F010008C0
:1000A0005F0100085F0100085F0100085F010008B0
:1000B0005F0100085F0100085F0100085F010008A0
:1000C0005F0100085F0100085F0100085F01000890
:1000D0005F0100085F0100085F0100085F01000880
:1000E0005F0100085F0100085F0100085F01000870
:1000F0005F0100085F0100085F0100085F01000860
:100100005F0100085F0100085F0100085F0100084F
:100110005F0100085F0100085F0100085F0100083F
:100120005F0100085F0100085F0100085F0100082F
:10013000DFF80CD000F02AF800480047190E00083C
:10014000500400200648804706480047FEE7FEE7C7
:10015000FEE7FEE7FEE7FEE7FEE7FEE7FEE7FEE777
:10016000D90C000831010008D2B201E000F8012BDF
:10017000491EFBD270470022F6E710B513460A4627
:1001800004461946FFF7F0FF204610BD064C074D08
:1001900006E0E06840F0010394E807009847103457
:1001A000AC42F6D3FFF7C8FF640E0008840E0008C7
:1001B0002DE9F047DFF888904FF4007805460022DB
:1001C000444641464F46484600F055F90122214633
:1001D000384600F050F91B4F0024002220213846F9
:1001E00000F049F97600280401D5002200E0012240
:1001F0008021384600F03FF94021384600F036F9BA
:1002000001281AD026F0010601222021384600F0EC
:1002100032F96D00012000F01BF8641C102CDCD3B7
:1002200000222021384600F026F9002241464846A7
:1002300000F021F9B0B2BDE8F08746F00106E3E72F
:100240000010014000080140FEE7704770470000C1
:1002500070B5044600F014F90546601C02D004484D
:100260000078044400F00CF9401BA042FAD370BDA2
:10027000000000202DE9F84FDFF8C891002409F1B3
:10028000040A0AF1040B23460F270BF1040ED1E0F8
:100290000125A54006EA0502AA4276D1DFF8A8C1E9
:1002A0004E68A6EB0C0866452BD00DDC032E34D02F
:1002B00005DC36B3012E19D0022E2FD11BE0112EF2
:1002C00016D0122E2AD119E0B8F5881F19D006DCF5
:1002D000B8F5803F15D0B8F5801F1FD111E0B8F5F3
:1002E000001F0ED0B8F5041F18D10AE0CB6815E046
:1002F000CB681B1D12E0CB6808330FE0CB680C33D2
:100300000CE08B682BB1012B4FF0080303D0456143
:1003100004E0042302E0056100E00023FF2A01D885
:10032000064601E000F104064FEA840501D9A5F173
:100330002005D6F8008007FA05FC28EA0C0803FA25
:1003400005F548EA0508C6F800804D68ED0070D54F
:100350003E4DAE6946F00106AE61AD6924F003067C
:1003600005F0010500953A4D06EB050CDCF8085048
:10037000A607360F07FA06F825EA0805DFF8D48045
:10038000404503D14FF0000825E052E0DFF8C88077
:10039000404502D14FF001081DE0DFF8C080404524
:1003A00002D14FF0020816E0DFF8B480404502D1D8
:1003B0004FF003080FE0DFF8AC80404502D14FF06A
:1003C000040808E0DFF8A080404502D14FF005089E
:1003D00001E04FF0060808FA06F848EA0508CCF8EC
:1003E00008804D68D9F80060ED034D4601D51643ED
:1003F00000E096432E604D68DAF80060AD03554684
:1004000001D5164300E096432E604D68DBF800608E
:10041000ED025D4601D5164300E096432E604D681F
:10042000DEF80060AD02754601D5164300E0964344
:100430002E60641C0A681646E2407FF429AFBDE8CE
:10044000F88F00000004014000001110001002406D
:100450000000014000080140000C01400010014074
:100460000014014000180140001C01408068084051
:1004700000D0012070470AB1016170470904FBE711
:100480000148806870470000000000200248816831
:10049000027811448160704700000020074810B5C1
:1004A000016841F010010160032000F067F80020AE
:1004B00000F006F800F024F8002010BD00200240F3
:1004C00070B50D4D04464FF47A712878B1FBF0F009
:1004D0000A490968B1FBF0F000F0DEFA48B9102CC7
:1004E00007D200222146501E00F028F800206C6040
:1004F00070BD012070BD0000000000200C00002035
:100500000C4808B5816941F001018161816901F000
:1005100001010091C16941F08051C161C06900F0E1
:10052000805000900448416821F0E06141F0007182
:10053000416008BD0010024000000140F0B40E4BC5
:100540001B680C46C3F30223C3F10705042D00D931
:100550000425191D072901D2002300E0DB1E012616
:1005600006FA05F1491E214099409E40761E16402C
:100570003143F0BC00F031BC0CED00E0064900F066
:10058000070208684FF6FF03184040EA0220034ABA
:1005900010430860704700000CED00E00000FA0511
:1005A0002DE9F0470F46050061D0434E306800F05A
:1005B0000700B84209D2306820F0070038433060A5
:1005C000306800F00700B84251D128683B4C8107E1
:1005D00012D5400703D5606840F4E0606060287879
:1005E000000703D5606840F4605060606068A968E7
:1005F00020F0F000084360602878C00728D06868C1
:10060000012810D02168022810D0890700292EDA8D
:10061000616821F0030101436160FFF731FF80460B
:1006200041F288390DE021688903EFE78901EDE7A0
:10063000FFF726FFA0EB0801494502D90320BDE8DA
:10064000F0876068696800F00C00B0EB810FEFD1B3
:10065000306800F00700B8420BD9306820F007007E
:1006600038433060306800F00700B84201D0012004
:10067000E5E72878400705D56068E96820F4E06080
:10068000084360602878000706D56068296920F46F
:10069000605040EAC100606000F038F86168084AC4
:1006A000C1F30311515CC840064908600648006860
:1006B000FFF706FF0020C2E70020024000100240C2
:1006C0004A0E00080C0000200400002004480549E0
:1006D00000684968044AC1F30221515CC840704770
:1006E0000C000020001002405A0E00080448054982
:1006F00000684968044AC1F3C221515CC840704790
:100700000C000020001002405A0E000812A185B013
:100710000FC98DE80F0014A0144A006804905168B6
:10072000134801F00C03042B10D0082B0ED1C1F399
:100730008343C9031DF803000AD5516804AAC1F315
:100740004041515C0A4A5043B0FBF1F005B070479C
:1007500008494843FAE700000203040506070809B0
:100760000A0B0C0D0E0F10100102000000100240C9
:1007700000127A0000093D002DE9F84F040070D006
:100780002078C04DC00749D06868C0F381000128B7
:1007900007D06868C0F38100022809D16868C003E7
:1007A00006D52868800339D560680028E7D035E091
:1007B0006068B0F5803F0BD010B1B0F5A02F11D01C
:1007C000286820F480302860286820F4802002E027
:1007D000286840F480302860606890B1FFF750FED0
:1007E00006460AE0286840F480202860F0E700BF51
:1007F000FFF746FE801B642873D828688003F7D56E
:100800000CE0FFF73DFE064605E000BFFFF738FEAF
:10081000801B6428F0D828688003F7D420789A4E8B
:1008200080074FF001094FF0000839D5686810F0D3
:100830000C0F07D06868C0F38100022809D16868EE
:10084000C00306D42868800714D52069012808D180
:1008500010E02069B0B1C6F80090FFF711FE07461E
:1008600005E00AE1FFF70CFEC01B0228C4D8286887
:100870008007F7D52868616920F0F80040EAC100D8
:1008800028600DE0C6F80080FFF7FAFD074604E097
:10089000FFF7F6FDC01B022823D828688007F7D48D
:1008A000207800072CD57948A169D9B1C0F800900B
:1008B000FFF7E6FD074604E0FFF7E2FDC01B022854
:1008C0000FD8686A8007F7D571484FF4FA5100686D
:1008D000B0FBF1F0009000BF0098411E0091FAD2E9
:1008E0000EE080E0C0F80080FFF7CAFD074604E094
:1008F000FFF7C6FDC01B022875D8686A8007F7D4C9
:100900002078400760D5E8690027C00008D4E8696E
:1009100040F08050E861E869012700F080500090C5
:100920005C480168C90513D40168834641F48071AD
:100930000160FFF7A5FD824606E000BFFFF7A0FDBE
:10094000A0EB0A0064284ED8DBF80000C005F5D5FE
:10095000E06801280AD008B1052813D0286A20F0E1
:1009600001002862286A20F0040002E0286A40F0B2
:1009700001002862E06841F2883B98B1FFF780FDF2
:1009800082460BE0286A40F004002862EEE700BFD0
:10099000FFF776FDA0EB0A0159455AD8286A80076F
:1009A000F6D50CE0FFF76CFD824605E0FFF768FD29
:1009B000A0EB0A0159454CD8286A8007F6D41FB12C
:1009C000E86920F08050E861E06988B36968C1F3A4
:1009D0008101022944D00228C6F8608004D0FFF7C4
:1009E0004FFD044638E034E0FFF74AFD074604E0D7
:1009F000FFF746FDC01B02282BD828688001F7D4DA
:100A0000206AB0F5803F05D16868A16820F4003005
:100A100008436860D4E908010843696821F4741147
:100A200008436860C6F86090FFF72AFD044606E0B8
:100A300025E000BFFFF724FD001B022809D8286825
:100A40008001F7D51BE000BFFFF71AFD001B02284D
:100A500002D90320BDE8F88F28688001F4D40EE0A5
:100A60000128F7D06868226A00F48031914204D1ED
:100A7000616A00F47010884201D00120EAE700208A
:100A8000E8E70000001002400000424280044242B9
:100A90000C0000200070004010B5401EB0F1807FB7
:100AA00001D3012010BD4FF0E02460610F216017D9
:100AB00000F093F90020A06107202061002010BD04
:100AC00070B5040004D094F83900002510B106E098
:100AD000012070BD84F83850204600F023F824200F
:100AE00084F839002068C16821F40051C1602046B3
:100AF00000F016F92068016921F490410161206835
:100B0000416921F02A0141612068C16841F4005126
:100B1000C160E563202084F8390084F83A000020A1
:100B200070BD000030B585B000240094019402949B
:100B3000039400681449884224D11448816941F41F
:100B400080418161816901F480410491816941F0B2
:100B50000401816180690E4D00F0040004904FF49F
:100B600000700090022001900320039069462846FF
:100B7000FFF780FB2815CDE900046946284602945A
:100B8000FFF778FB05B030BD00380140001002408F
:100B900000080140FEE700002DE9F04385B0002485
:100BA00025480094019402940394816941F0200146
:100BB0008161816901F020010491816941F00401A2
:100BC0008161816901F004010491816941F01001A2
:100BD00081618069DFF8648000F0100004900022D9
:100BE00060214046FFF747FCDFF854904FF4007750
:100BF000002239464846FFF73EFC602001250226C8
:100C0000CDE90005CDE9024669464046FFF732FBD3
:100C10008020CDE90004694640460294FFF72AFB94
:100C200000970396CDE9015469464846FFF722FB39
:100C300005B0BDE8F083000000100240000801404C
:100C4000001001400C4810B50A4901604FF4E13131
:100C50004160002181600C22C160C0E90412816101
:100C6000C161FFF72DFF002803D0BDE81040FFF75A
:100C7000EDBA10BD0038014010000020FEE77047BB
:100C800070477047FFF702BC30B58FB02821684627
:100C9000FFF771FA14210AA8FFF76DFA0121080481
:100CA000CDE900100024029402250491CDE90750FB
:100CB0004FF4E01009906846FFF75EFD0F20CDE984
:100CC0000A056802CDE90C4002210AA80E94FFF73C
:100CD00067FC0FB030BD00000D48016841F0010114
:100CE000016041680B4A1140416001680A4A1140A5
:100CF0000160016821F480210160416821F4FE0156
:100D000041604FF41F0181600449C00308607047CF
:100D1000001002400000FFF8FFFFF6FE08ED00E0C3
:100D20002DE9F041044600680169E26821F4405170
:100D3000114301612169A068084361690843216882
:100D4000CA6841F20C639A430243CA602068416951
:100D5000A26921F44071114341611E492068642554
:100D60003226884202D1FFF7C1FC01E0FFF7AEFC5A
:100D700000EBC00101EB001160686FF01807800004
:100D8000B1FBF0F2B2FBF5F2B1FBF0F37A4303EB07
:100D90008202B1FBF0F306EB0212B2FBF5F2B3FBF9
:100DA000F5F302F0F00202EB0312B1FBF0F3B1FB3A
:100DB000F0F0B0FBF5F0784303EB800006EB001099
:100DC000B0FBF5F0216800F00F0010448860BDE82A
:100DD000F081000000380140FEE70907090E0028F5
:100DE00004DB00F1E02080F80014704700F00F00F1
:100DF00000F1E02080F8141D704702E008C8121FBF
:100E000008C1002AFAD170477047002001E001C1F3
:100E1000121F002AFBD17047FFF740FBFFF734FF9A
:100E2000FFF7BAFEFFF70EFF48F21000FFF7C0F918
:100E30004FF42840FFF7BCF94FF47A740020FFF715
:100E4000B7F92046FFF704FAF8E7000000000000B9
:100E50000000010203040607080900000000010267
:100E600003040000840E00080000002010000000B1
:100E7000FA0D0008940E0008100000204004000045
:100E80000A0E000801000000100000000000000031
:040E90000024F40046
:0400000508000131BD
:00000001FF
