:020000040800F2
:1000000000C00020151600086D14000879140008BF
:100010007F140008851400088B14000800000000FD
:100020000000000000000000000000009114000823
:100030009D14000800000000A9140008B514000871
:100040005D1600085D1600085D1600085D160008C4
:100050005D1600085D1600085D1600085D160008B4
:100060005D1600085D1600085D1600085D160008A4
:100070005D1600085D1600085D1600085D16000894
:100080005D1600085D1600085D1600085D16000884
:100090005D1600085D1600085D1600085D16000874
:1000A0005D1600085D1600085D1600085D16000864
:1000B0005D1600085D1600085D1600085D16000854
:1000C0005D1600085D1600085D1600085D16000844
:1000D0005D1600085D1600085D1600085D16000834
:1000E0005D1600085D1600085D1600085D16000824
:1000F0005D1600085D1600085D1600085D16000814
:100100005D1600085D1600085D1600085D16000803
:100110005D1600085D1600085D1600085D160008F3
:100120005D1600085D1600085D1600085D160008E3
:1001300000000000000000000000000000000000BF
:1001400000000000000000000000000000000000AF
:10015000000000000000000000000000000000009F
:10016000000000000000000000000000000000008F
:10017000000000000000000000000000000000007F
:10018000000000000000000000000000000000006F
:10019000000000000000000000000000000000005F
:1001A000000000000000000000000000000000004F
:1001B000000000000000000000000000000000003F
:1001C000000000000000000000000000000000002F
:1001D000000000000000000000000000000000001F
:0401E0005FF8E0F1F3
:1001E40010B5054C237833B9044B13B10448AFF36D
:1001F40000800123237010BD0C00002000000000CB
:10020400B816000808B5034B1BB103490348AFF304
:10021400008008BD0000000010000020B81600088F
:1002240080B500AF084A084B1B6843F01003136005
:10023400032000F027F9002000F008F801F0E2F8AC
:100244000023184680BD00BF0020024080B582B064
:1002540000AF7860124B1A68124B1B7819464FF4A2
:100264007A73B3FBF1F3B2FBF3F3184600F031F900
:100274000346002B01D001230EE07B680F2B0AD824
:10028400002279684FF0FF3000F007F9064A7B68D6
:100294001360002300E0012318460837BD4680BDE3
:1002A40008000020040000200000002080B400AFFB
:1002B400054B1B781A46054B1B681344034A13600D
:1002C40000BFBD4680BC7047040000202800002009
:1002D40080B400AF024B1B681846BD4680BC704713
:1002E4002800002080B584B000AF7860FFF7F0FFED
:1002F400B8607B68FB60FB68B3F1FF3F05D0094B36
:100304001B781A46FB681344FB6000BFFFF7E0FF4D
:100314000246BB68D21AFB689A42F7D300BF103773
:10032400BD4680BD0400002080B485B000AF786075
:100334007B6803F00703FB600C4BDB68BB60BA68A7
:100344004FF6FF031340BB60FB681A02BB681343FC
:1003540043F0BF6343F40033BB60044ABB68D3601B
:1003640000BF1437BD4680BC704700BF00ED00E0FD
:1003740080B400AF044BDB681B0A03F00703184684
:10038400BD4680BC704700BF00ED00E080B483B080
:1003940000AF03463960FB7197F90730002B0ADB85
:1003A4000D4997F907303A68D2B21201D2B20B4420
:1003B40083F800230AE00949FB7903F00F03043BA7
:1003C4003A68D2B21201D2B20B441A7600BF0C378B
:1003D400BD4680BC704700BF00E100E000ED00E0D6
:1003E40080B489B000AFF860B9607A60FB6803F04C
:1003F4000703FB61FB69C3F10703042B28BF042334
:10040400BB61FB690433062B02D9FB69033B00E0A3
:1004140000237B610122BB6902FA03F35A1EBB6805
:100424001A407B699A4001217B6901FA03F3591E42
:100434007B680B40134318462437BD4680BC704785
:1004440080B582B000AF78607B68013BB3F1807FF8
:1004540001D301230FE00A4A7B68013B53600F215B
:100464004FF0FF30FFF792FF054B00229A60044BD8
:1004740007221A60002318460837BD4680BD00BF16
:1004840010E000E080B582B000AF78607868FFF7D4
:100494004BFF00BF0837BD4680BD80B586B000AFB6
:1004A4000346B9607A60FB7300237B61FFF760FF4A
:1004B40078617A68B9687869FFF792FF024697F91C
:1004C4000F3011461846FFF761FF00BF1837BD46CD
:1004D40080BD80B582B000AF78607868FFF7B0FF68
:1004E400034618460837BD4680BD000080B48BB073
:1004F40000AF7860396000237B6200233B6233E104
:1005040001227B6A02FA03F3FB613B681A68FB6908
:100514001340BB61BA69FB699A4240F022813B688F
:100524005B68122B34D0122B0DD8022B2BD0022B4C
:1005340004D8002B31D0012B1CD048E0032B43D02E
:10054400112B1BD043E08F4A934226D08D4A93420D
:1005540006D88D4A934220D08C4A93421DD036E06F
:100564008B4A934219D08B4A934216D08A4A9342BB
:1005740013D02CE03B68DB683B6228E03B68DB6817
:1005840004333B6223E03B68DB6808333B621EE0D4
:100594003B68DB680C333B6219E03B689B68002BCB
:1005A40002D104233B6212E03B689B68012B05D116
:1005B40008233B627B68FA691A6108E008233B62FE
:1005C4007B68FA695A6102E000233B6200BFBB69A1
:1005D400FF2B01D87B6801E07B6804337B61BB6936
:1005E400FF2B02D87B6A9B0002E07B6A083B9B00DE
:1005F4003B617B691A680F213B6901FA03F3DB4312
:100604001A40396A3B6901FA03F31A437B691A6099
:100614003B685B6803F08053002B00F0A2805F4AC4
:100624005E4B9B6943F0010393615C4B9B6903F050
:100634000103BB60BB685A4A7B6A9B08023352F8C9
:100644002330FB607B6A03F003039B000F2202FA52
:1006540003F3DB43FA681340FB607B68514A93421F
:100664001FD07B68504A934219D07B684F4A93420B
:1006740013D07B684E4A93420DD07B684D4A934217
:1006840007D07B684C4A934201D105230AE0062334
:1006940008E0042306E0032304E0022302E001232C
:1006A40000E000237A6A02F0030292009340FA68A1
:1006B4001343FB603A497B6A9B080233FA6841F8AA
:1006C40023203B685B6803F48033002B06D03B494E
:1006D4003A4B1A68BB6913430B6006E03749374B42
:1006E4001A68BB69DB4313400B603B685B6803F427
:1006F4000033002B06D03149304B5A68BB69134391
:100704004B6006E02D492D4B5A68BB69DB4313400F
:100714004B603B685B6803F48013002B06D02749C9
:10072400264B9A68BB6913438B6006E02349234B2D
:100734009A68BB69DB4313408B603B685B6803F4D6
:100744000013002B06D01D491C4BDA68BB69134308
:10075400CB6006E01949194BDA68BB69DB431340E7
:10076400CB607B6A01337B623B681A687B6A22FA3E
:1007740003F3002B7FF4C4AE00BF2C37BD4680BC0E
:10078400704700BF0000211000001110000012107B
:10079400000031100000321000002210001002404E
:1007A4000000014000080140000C0140001001401D
:1007B4000014014000180140001C014000040140E5
:1007C40080B483B000AF78600B467B8013467B70A7
:1007D4007B78002B03D07A887B681A6103E07B88DE
:1007E4001A047B681A6100BF0C37BD4680BC704791
:1007F40080B586B000AF78607B68002B01D10123FF
:100804006CE27B681B6803F00103002B00F0878017
:10081400924B5B6803F00C03042B0CD08F4B5B688A
:1008240003F00C03082B12D18C4B5B6803F4803368
:10083400B3F5803F0BD1894B1B6803F40033002BC5
:100844006CD07B685B68002B68D1012346E27B682F
:100854005B68B3F5803F06D1804A804B1B6843F444
:10086400803313602EE07B685B68002B0CD17B4ADD
:100874007A4B1B6823F480331360784A774B1B68E8
:1008840023F4802313601DE07B685B68B3F5A02F1D
:100894000CD1724A714B1B6843F4802313606F4A76
:1008A4006E4B1B6843F4803313600BE06B4A6B4B55
:1008B4001B6823F480331360684A684B1B6823F475
:1008C400802313607B685B68002B13D0FFF700FD67
:1008D400386108E0FFF7FCFC02463B69D31A642B3D
:1008E40001D90323FAE15D4B1B6803F40033002BA9
:1008F400F0D014E0FFF7ECFC386108E0FFF7E8FC07
:1009040002463B69D31A642B01D90323E6E1534B16
:100914001B6803F40033002BF0D100E000BF7B68B8
:100924001B6803F00203002B63D04C4B5B6803F09D
:100934000C03002B0BD0494B5B6803F00C03082B12
:100944001CD1464B5B6803F48033002B16D1434B18
:100954001B6803F00203002B05D07B681B69012B85
:1009640001D00123BAE13D493C4B1B6823F0F80256
:100974007B685B69DB0013430B603AE07B681B69AF
:10098400002B20D0364B01221A60FFF7A1FC3861FE
:1009940008E0FFF79DFC02463B69D31A022B01D9FC
:1009A40003239BE12D4B1B6803F00203002BF0D0C3
:1009B4002A492A4B1B6823F0F8027B685B69DB0039
:1009C40013430B6015E0264B00221A60FFF780FCEE
:1009D400386108E0FFF77CFC02463B69D31A022B1E
:1009E40001D903237AE11D4B1B6803F00203002B9A
:1009F400F0D17B681B6803F00803002B3AD07B68B6
:100A04009B69002B19D0174B01221A60FFF760FC79
:100A1400386108E0FFF75CFC02463B69D31A022BFD
:100A240001D903235AE10D4B5B6A03F00203002B47
:100A3400F0D0012000F0DAFA1CE00A4B00221A6020
:100A4400FFF746FC38610FE0FFF742FC02463B69C2
:100A5400D31A022B08D9032340E100BF001002403F
:100A640000004242800442429E4B5B6A03F0020350
:100A7400002BE9D17B681B6803F00403002B00F012
:100A8400A6800023FB75974BDB6903F08053002B92
:100A94000DD1944A934BDB6943F08053D361914B5E
:100AA400DB6903F08053BB60BB680123FB758E4B8D
:100AB4001B6803F48073002B18D18B4A8A4B1B6884
:100AC40043F480731360FFF703FC386108E0FFF719
:100AD400FFFB02463B69D31A642B01D90323FDE0D3
:100AE400814B1B6803F48073002BF0D07B68DB68B8
:100AF400012B06D17B4A7B4B1B6A43F00103136233
:100B04002DE07B68DB68002B0CD1764A754B1B6AA1
:100B140023F001031362734A724B1B6A23F004032C
:100B240013621CE07B68DB68052B0CD16D4A6D4BAE
:100B34001B6A43F0040313626A4A6A4B1B6A43F05C
:100B4400010313620BE0674A664B1B6A23F001033F
:100B54001362644A634B1B6A23F0040313627B68C9
:100B6400DB68002B15D0FFF7B3FB38610AE0FFF711
:100B7400AFFB02463B69D31A41F28832934201D952
:100B84000323ABE0574B1B6A03F00203002BEED0A8
:100B940014E0FFF79DFB38610AE0FFF799FB02467A
:100BA4003B69D31A41F28832934201D9032395E079
:100BB4004C4B1B6A03F00203002BEED1FB7D012B8F
:100BC40005D1484A474BDB6923F08053D3617B68E6
:100BD400DB69002B00F08180424B5B6803F00C035F
:100BE400082B61D07B68DB69022B46D13F4B002286
:100BF4001A60FFF76DFB386108E0FFF769FB0246F6
:100C04003B69D31A022B01D9032367E0354B1B68D8
:100C140003F00073002BF0D17B681B6AB3F5803FAF
:100C240008D130492F4B5B6823F400327B689B6802
:100C340013434B602B482B4B5B6823F474127B6883
:100C4400196A7B685B6A0B4313434360274B012299
:100C54001A60FFF73DFB386108E0FFF739FB0246F5
:100C64003B69D31A022B01D9032337E01D4B1B68C0
:100C740003F00073002BF0D02FE01C4B00221A600D
:100C8400FFF726FB386108E0FFF722FB02463B69C9
:100C9400D31A022B01D9032320E0124B1B6803F063
:100CA4000073002BF0D118E07B68DB69012B01D1C4
:100CB400012313E00B4B5B68FB60FB6803F4803299
:100CC4007B681B6A9A4206D1FB6803F470127B6846
:100CD4005B6A9A4201D0012300E0002318461837CA
:100CE400BD4680BD001002400070004060004242DA
:100CF40080B584B000AF786039607B68002B01D187
:100D04000123D0E06A4B1B6803F007023B689A4258
:100D140010D26749664B1B6823F007023B681343F4
:100D24000B60634B1B6803F007023B689A4201D0D7
:100D34000123B8E07B681B6803F00203002B20D07A
:100D44007B681B6803F00403002B05D0594A594BF8
:100D54005B6843F4E06353607B681B6803F008033B
:100D6400002B05D0534A534B5B6843F460535360E4
:100D74005049504B5B6823F0F0027B689B68134337
:100D84004B607B681B6803F00103002B40D07B6839
:100D94005B68012B07D1474B1B6803F40033002B1E
:100DA40015D101237FE07B685B68022B07D1414B9F
:100DB4001B6803F00073002B09D1012373E03D4B42
:100DC4001B6803F00203002B01D101236BE03949B6
:100DD400384B5B6823F003027B685B6813434B600A
:100DE400FFF776FAF8600AE0FFF772FA0246FB684A
:100DF400D31A41F28832934201D9032353E02D4B95
:100E04005B6803F00C027B685B689B009A42EBD141
:100E1400274B1B6803F007023B689A4210D9244908
:100E2400234B1B6823F007023B6813430B60204BE2
:100E34001B6803F007023B689A4201D0012332E0A9
:100E44007B681B6803F00403002B08D01949194B75
:100E54005B6823F4E0627B68DB6813434B607B6868
:100E64001B6803F00803002B09D01249114B5B687F
:100E740023F460527B681B69DB0013434B6000F072
:100E840021F801460B4B5B681B0903F00F030A4A68
:100E9400D35C21FA03F3094A1360094B1B68184613
:100EA400FFF7D4F9002318461037BD4680BD00BFB4
:100EB4000020024000100240E41600080800002050
:100EC4000000002090B48AB000AF2A4B3C1D0FCB29
:100ED40084E80F00284B1B883B800023FB61002320
:100EE400BB6100237B6200237B6100233B62234BB5
:100EF4005B68FB61FB6903F00C03042B02D0082B35
:100F040003D02DE01E4B3B622DE0FB699B0C03F0EC
:100F14000F0307F12802134413F8243C7B61FB6997
:100F240003F48033002B13D0144B5B685B0C03F089
:100F3400010307F12802134413F8283CBB617B69C1
:100F44000F4A02FB03F2BB69B2FBF3F37B6204E0DA
:100F54007B690C4A02FB03F37B627B6A3B6202E01F
:100F6400074B3B6200BF3B6A18462837BD4690BC1E
:100F7400704700BFD0160008E016000800100240B9
:100F840000127A0000093D0080B400AF024B1B68D8
:100F94001846BD4680BC70470800002080B500AFED
:100FA400FFF7F2FF0146054B5B681B0A03F00703DA
:100FB400034AD35C21FA03F3184680BD00100240B3
:100FC400F416000880B500AFFFF7DEFF0146054BBD
:100FD4005B68DB0A03F00703034AD35C21FA03F3DB
:100FE400184680BD00100240F416000880B485B095
:100FF40000AF78600A4B1B680A4AA2FB03235B0A12
:101004007A6802FB03F3FB6000BFFB685A1EFA60B8
:10101400002BF9D100BF1437BD4680BC704700BF18
:1010240008000020D34D621080B582B000AF786014
:101034007B68002B01D101233FE07B6893F83930B2
:10104400DBB2002B06D17B68002283F83820786855
:1010540000F092FA7B68242283F839207B681B68AD
:101064007A681268D26822F40052DA60786800F074
:1010740029F87B681B687A681268126922F4904226
:101084001A617B681B687A681268526922F02A0226
:101094005A617B681B687A681268D26842F400520D
:1010A400DA607B680022DA637B68202283F83920C7
:1010B4007B68202283F83A20002318460837BD466F
:1010C40080BD000090B585B000AF78607B681B6878
:1010D4007A681268126922F440517A68D2680A4325
:1010E4001A617B689A687B681B691A437B685B6931
:1010F4001343FB607B681A687B681B68DB6823F416
:10110400B05323F00C03F9680B43D3607B681B686E
:101114007A681268526922F440717A6892690A43C3
:101124005A617B681B68524A93424ED1FFF74AFFCB
:10113400B8607B681968BA6813469B0013449A0028
:101144001A447B685B689B00B2FBF3F3494AA2FB39
:1011540003235B091801BA6813469B0013449A00E1
:101164001A447B685B689B00B2FBF3F2414BA3FB20
:1011740002435B09642404FB03F3D31A1B013233D7
:101184003C4AA2FB03235B0903F0F0031844BA684A
:1011940013469B0013449A001A447B685B689B00C7
:1011A400B2FBF3F2334BA3FB02435B09642404FB5D
:1011B40003F3D31A1B0132332E4AA2FB03235B0928
:1011C40003F00F0303448B604DE0FFF7E7FEB860C4
:1011D4007B681968BA6813469B0013449A001A4442
:1011E4007B685B689B00B2FBF3F3224AA2FB0323F8
:1011F4005B091801BA6813469B0013449A001A4409
:101204007B685B689B00B2FBF3F21A4BA3FB0243BF
:101214005B09642404FB03F3D31A1B013233154A1C
:10122400A2FB03235B0903F0F0031844BA681346D6
:101234009B0013449A001A447B685B689B00B2FBD2
:10124400F3F20C4BA3FB02435B09642404FB03F39A
:10125400D31A1B013233074AA2FB03235B0903F0B1
:101264000F0303448B6000BF1437BD4690BD00BF1D
:10127400003801401F85EB5180B588B000AF07F1FD
:10128400100300221A605A609A60DA602D4A2D4BCE
:101294009B6943F0200393612A4B9B6903F020036D
:1012A400FB60FB68274A274B9B6943F00403936167
:1012B400244B9B6903F00403BB60BB68214A214BA8
:1012C4009B6943F0100393611E4B9B6903F0100369
:1012D4007B607B68002260211B48FFF771FA0022C3
:1012E4004FF400711948FFF76BFA60233B61012347
:1012F4007B610023BB610223FB6107F110031946E4
:101304001148FFF7F3F880233B6100237B6100233E
:10131400BB6107F1100319460B48FFF7E7F84FF4D8
:1013240000733B6101237B610023BB610223FB61EA
:1013340007F1100319460548FFF7D8F800BF203716
:10134400BD4680BD0010024000080140001001406D
:1013540080B500AFFEF764FF00F009F8FFF78CFFDB
:1013640000F0E0F84FF47A70FEF7BCFFFAE780B5BE
:1013740090B000AF07F1180328220021184600F0AE
:1013840091F93B1D00221A605A609A60DA601A6172
:101394000123BB614FF48033FB6100233B620123D3
:1013A400BB6202237B634FF48033BB634FF4E013CF
:1013B400FB6307F118031846FFF71AFA0346002BDC
:1013C40001D000F019F80F237B600223BB600023D7
:1013D400FB604FF480633B6100237B613B1D022172
:1013E4001846FFF785FC0346002B01D000F004F8F3
:1013F40000BF4037BD4680BD80B400AF00BFBD46CE
:1014040080BC704780B485B000AF154A144B9B690B
:1014140043F001039361124B9B6903F00103BB602A
:10142400BB680F4A0E4BDB6943F08053D3610C4B0E
:10143400DB6903F080537B607B680A4B5B68FB606D
:10144400FB6823F0E063FB60FB6843F00073FB6020
:10145400044AFB68536000BF1437BD4680BC704724
:10146400001002400000014080B400AF00BFBD4640
:1014740080BC704780B400AFFEE780B400AFFEE7E5
:1014840080B400AFFEE780B400AFFEE780B400AFE5
:1014940000BFBD4680BC704780B400AF00BFBD46EE
:1014A40080BC704780B400AF00BFBD4680BC7047AD
:1014B40080B500AFFEF7FAFE00BF80BD80B400AF78
:1014C400154A154B1B6843F0010313601249124B74
:1014D4005A68124B13404B600F4A0F4B1B6823F0A2
:1014E400847323F4803313600B4A0B4B1B6823F47F
:1014F40080231360084A084B5B6823F4FE0353609F
:10150400054B4FF41F029A60054B4FF000629A603E
:1015140000BFBD4680BC7047001002400000FFF8C9
:1015240000ED00E080B500AF114B124A1A60104B79
:101534004FF4E1325A600E4B00229A600C4B0022A9
:10154400DA600B4B00221A61094B0C225A61084BDA
:1015540000229A61064B0022DA610548FFF764FD18
:101564000346002B01D0FFF747FF00BF80BD00BF3B
:101574002C0000200038014080B588B000AF7860AE
:1015840007F1100300221A605A609A60DA607B68DF
:101594001B681C4A934231D11B4A1B4B9B6943F481
:1015A40080439361184B9B6903F48043FB60FB68A1
:1015B400154A154B9B6943F004039361124B9B69D5
:1015C40003F00403BB60BB684FF400733B61022368
:1015D4007B610323FB6107F1100319460B48FEF7F7
:1015E40085FF4FF480633B6100237B610023BB6173
:1015F40007F1100319460548FEF778FF00BF2037AE
:10160400BD4680BD00380140001002400008014082
:10161400002103E00B4B5B58435004310A480B4B49
:1016240042189A42F6D30A4A02E0002342F8043BE5
:10163400084B9A42F9D3FFF741FF00F00FF8FFF788
:1016440087FE704704170008000000200C000020EB
:101654000C0000206C000020FEE7000070B500259F
:101664000C4E0D4CA41BA410A54209D100F022F885
:1016740000250A4E0A4CA41BA410A54205D170BD36
:1016840056F8253098470135EEE756F82530984747
:101694000135F2E7FC160008FC160008FC160008E9
:1016A4000017000803460244934200D1704703F830
:1016B400011BF9E7F8B500BFF8BC08BC9E467047AB
:0C16C400F8B500BFF8BC08BC9E4670479B
:1016D00002030405060708090A0B0C0D0E0F101073
:1016E00001020000000000000000000001020304ED
:0C16F000060708090000000001020304C6
:0416FC0009020008D7
:04170000E5010008F7
:0C17040010000000010000000024F400B0
:0400000508001615C4
:00000001FF
